:100000000C9463000C948B000C948B000C948B006C
:100010000C948B000C948B000C948B000C948B0034
:100020000C948B000C948B000C948B000C948B0024
:100030000C948B000C948B000C948B000C948B0014
:100040000C9438070C948B000C940C020C94E60171
:100050000C948B000C948B000C948B000C948B00F4
:100060000C9428040C948B00000000002300260050
:10007000290000000000240027002A0000000000E2
:10008000250028002B0004040404040404040202D4
:100090000202020203030303030301020408102007
:1000A0004080010204081020010204081020000012
:1000B0000008000201000003040700000000000027
:1000C0000000C20F231011241FBECFEFD8E0DEBF07
:1000D000CDBF23E0A6E3B2E001C01D92A23FB2076C
:1000E000E1F712E0A0E0B1E0E6EAF5E202C0059037
:1000F0000D92A633B107D9F710E0C2E6D0E004C0F4
:100100002197FE010E94AC10C136D107C9F70E94A9
:10011000780C0C94C6120C940000FC01538D448D95
:10012000252F30E0842F90E0821B930B541710F0A2
:10013000CF96089501970895FC01918D828D9817AF
:1001400061F0828DDF01A80FB11D5D968C91928DBB
:100150009F5F9F73928F90E008958FEF9FEF0895B8
:10016000FC01918D828D981731F0828DE80FF11D81
:10017000858D90E008958FEF9FEF0895FC01918D9C
:10018000228D892F90E0805C9F4F821B91098F7395
:100190009927089587E992E00E94BE0021E0892B0B
:1001A00009F420E0822F0895FC01848DDF01A80F5F
:1001B000B11DA35ABF4F2C91848D90E001968F738F
:1001C0009927848FA689B7892C93A089B1898C91AE
:1001D00080648C93938D848D981306C00288F38974
:1001E000E02D80818F7D80830895EF92FF920F93A1
:1001F0001F93CF93DF93EC0181E0888F9B8D8C8DD3
:10020000981305C0E889F989808185FD24C0F62E00
:100210000B8D10E00F5F1F4F0F731127E02E8C8D99
:10022000E8120CC00FB607FCFACFE889F989808183
:1002300085FFF5CFCE010E94D400F1CF8B8DFE015A
:10024000E80FF11DE35AFF4FF0820B8FEA89FB891B
:100250008081806207C0EE89FF896083E889F9891F
:1002600080818064808381E090E0DF91CF911F9155
:100270000F91FF90EF900895CF93DF93EC01888D5D
:100280008823C9F0EA89FB89808185FD05C0A8899A
:10029000B9898C9186FD0FC00FB607FCF5CF808120
:1002A00085FFF2CFA889B9898C9185FFEDCFCE016A
:1002B0000E94D400E7CFDF91CF91089580E090E0D5
:1002C000892B29F00E94CA0081110C940000089526
:1002D000CF93FC01C48121E020935D02C0933802DA
:1002E00010925B0210925C028385682B8BE892E08F
:1002F0000E94E70280915C02813208F046C0909132
:1003000061029111FCCF92E09093610291E0909391
:1003100063029FEF909360021092850280938402A3
:10032000ABE3B2E024E632E0F9019E2F921B98176E
:1003300018F49D919193F9CF1092860280918602D4
:10034000CC0FC82BC093860280916202813061F489
:1003500010926202809186028093BB008091BC0063
:1003600083FDF8CF85EC01C085EE8093BC008091C1
:1003700061028230E1F3809160028F3F31F0809121
:100380006002803211F08091600210925B02109244
:100390005C0210925D02CF9108950F931F93CF934B
:1003A0008C01C62F0E9468016C2F6460C8010E94F6
:1003B00068016C2F6B7FC8010E94680183EC90E09C
:1003C0000197F1F7CF911F910F9108951F920F920E
:1003D0000FB60F9211242F933F934F935F936F9318
:1003E0007F938F939F93AF93BF93EF93FF9387E98F
:1003F00092E00E94D400FF91EF91BF91AF919F9145
:100400008F917F916F915F914F913F912F910F90BD
:100410000FBE0F901F9018951F920F920FB60F925C
:1004200011242F938F939F93EF93FF93E091A70253
:10043000F091A8028081E091AD02F091AE0282FDC0
:1004400012C090818091B0028F5F8F732091B102B2
:10045000821751F0E091B002F0E0E956FD4F958F20
:100460008093B00201C08081FF91EF919F918F91A5
:100470002F910F900FBE0F901F901895FF920F9322
:100480001F93CF93DF931F92CDB7DEB78C01F62E6B
:10049000962F907F692F642BC80149830E94CD015C
:1004A00080E1F89EB00111244981642BC8010F90AE
:1004B000DF91CF911F910F91FF900C94CD0185EDAD
:1004C0008093BC008091BC0084FDFCCF109261023F
:1004D000089540918603262F30E0240F311D2132EC
:1004E0003105DCF4209161022430C9F4FC0180E084
:1004F00090E0861758F4309186032191DC01AC59C5
:10050000BC4FA30FB11D2C930196F3CF80918603AE
:10051000680F6093860380E0089581E0089582E08B
:100520000895089581E090E030915F0220915E028D
:10053000321710F480E090E091958195910908952B
:1005400080915F0290915E02891730F48F5F8093F3
:100550005F0280E090E008958FEF9FEF0895809113
:100560005E0290E020915F02821B91090895CF9274
:10057000DF92EF92FF920F931F93CF93DF937C0153
:10058000262F972F8A0180915D02882391F0C62F34
:10059000D72F6E01C40ED51ECC15DD0571F0699103
:1005A000D701ED91FC910190F081E02DC7010995F3
:1005B000F3CF642F822F0E946902C801DF91CF918F
:1005C0001F910F91FF90EF90DF90CF900895CF9300
:1005D000DF931F92CDB7DEB7698320915D0222239E
:1005E000D1F020915C02203240F021E030E0FC01AB
:1005F0003383228380E090E015C080915B02E82F76
:10060000F0E0E55CFD4F998190838F5F80935B0202
:1006100080935C0205C061E0CE0101960E946902F0
:1006200081E090E00F90DF91CF9108953FB7F8946B
:100630008091600390916103A0916203B091630384
:1006400026B5A89B05C02F3F19F00196A11DB11D2D
:100650003FBFBA2FA92F982F8827820F911DA11D68
:10066000B11DBC01CD0142E0660F771F881F991FA5
:100670004A95D1F708950E94A912282F80918702E8
:10068000882319F081E08093AB038091AB03A7E846
:10069000B2E0E22FF92F2D919191291380E092E0A1
:1006A000AB38B907C1F78093AB030895BC018FE461
:1006B00093E00C94630CCF93DF93CDB7DEB728970C
:1006C0000FB6F894DEBF0FBECDBF28E0E6E1F1E043
:1006D000DE01119601900D922A95E1F720915803C1
:1006E000261710F46FEF620FFE013196E60FF11D31
:1006F000E60FF11D9081682F690F606840E08FE47C
:1007000093E028960FB6F894DEBF0FBECDBFDF9101
:10071000CF910C943E0240E061E08FE493E00E94B0
:100720003E028BE39FE10197F1F708958F929F922C
:10073000AF92BF92CF92DF92EF92FF920F931F93EF
:10074000CF93DF93CDB7DEB7A1970FB6F894DEBF96
:100750000FBECDBF6C01990FEE08FF08F7FE33C046
:10076000E0914F03F09150030190F081E02D6DE294
:100770008FE493E009958C0122273327A9012C19D6
:100780003D094E095F0919A2CE0181967C019AE0CC
:10079000892E912CA12CB12CCA01B901A50194017B
:1007A0000E948A10605DF70162937F012115310577
:1007B0004105510589F7BF018FE493E00E94630C66
:1007C000800F911F1FC0A701960119A28E010F5D16
:1007D0001F4F8AE0C82ED12CE12CF12CCA01B9019F
:1007E000A70196010E948A10605DF80162938F0153
:1007F000211531054105510589F7BF018FE493E0CB
:100800000E94630CA1960FB6F894DEBF0FBECDBF59
:10081000DF91CF911F910F91FF90EF90DF90CF90DC
:10082000BF90AF909F908F900895CF93DF93BC01BE
:1008300087E992E00E94630CEC0168EB71E087E9C4
:1008400092E00E94630C8C0F9D1FDF91CF91089561
:100850001F920F920FB60F9211242F933F934F9335
:100860005F936F937F938F939F93AF93BF93EF9318
:10087000FF938091B900887F803609F49CC068F5A9
:10088000883209F45BC090F4803109F454C038F424
:10089000882309F4F6C0883009F44DC0F6C08831C9
:1008A00009F44CC0803209F45DC0EFC0803409F413
:1008B00068C048F4803309F455C0883309F0E5C0B6
:1008C00080936002D8C0803509F44FC0883509F4A0
:1008D0005DC0883409F0D9C0D6C0883909F4C7C0D2
:1008E000A8F4883709F467C038F4883609F463C07F
:1008F000803709F460C0C9C0883809F4B8C08039AD
:1009000009F45FC0803809F0C0C05BC0803B09F4C7
:1009100086C038F4803A09F466C0883A09F47FC08A
:10092000B4C0803C09F4A7C0883C09F4A4C0883B4B
:1009300009F48AC0AAC08091860210C090918502F5
:1009400080918402981770F5E091850281E08E0F06
:1009500080938502F0E0EC59FD4F80818093BB00CD
:1009600085EC86C0809360028EC0E091850281E0B4
:100970008E0F809385028091BB00F0E0EC59FD4F13
:10098000808390918502809184026EC0E0918502FF
:1009900081E08E0F809385028091BB00F0E0EC59DE
:1009A000FD4F80838091630281116DC081E080934F
:1009B000620284EA61C083E0809361021092AA031C
:1009C000CFCF8091AA03803208F051C0E091AA03F2
:1009D00081E08E0F8093AA038091BB00F0E0E65780
:1009E000FC4F8083BDCF85EC8093BC0010926102E8
:1009F0008091AA03803230F4E091AA03F0E0E65738
:100A0000FC4F10826091AA0370E0E0918803F0919E
:100A100089038AE893E009951092AA0336C084E01E
:100A2000809361021092870310928603E091840301
:100A3000F0918503099580918603811105C081E0BD
:100A40008093860310926403E091870381E08E0F08
:100A500080938703F0E0EC59FC4F80818093BB00CA
:100A60009091870380918603981708F479CF85E8E1
:100A70008093BC000AC085EC8093BC001092610298
:100A800004C0109260020E945F02FF91EF91BF913B
:100A9000AF919F918F917F916F915F914F913F9116
:100AA0002F910F900FBE0F901F901895833081F0FB
:100AB00028F4813099F08230A1F008958730A9F0B0
:100AC0008830B9F08430D1F4809180008F7D03C0EC
:100AD000809180008F7780938000089584B58F7710
:100AE00002C084B58F7D84BD08958091B0008F775A
:100AF00003C08091B0008F7D8093B00008951F9354
:100B0000CF93DF93282F30E0F901E255FF4F849116
:100B1000F901E656FF4FD491F901EA57FF4FC4910E
:100B2000CC23C9F0162F81110E945605EC2FF0E05E
:100B3000EE0FFF1FE458FF4FA591B4918FB7F894C3
:100B4000111105C09C91ED2FE095E92302C0EC91B5
:100B5000ED2BEC938FBFDF91CF911F910895CF9232
:100B6000DF92EF92FF920F931F93CF93DF9300D00A
:100B7000CDB7DEB78C01F62EFC01828993894983BB
:100B80005A830E945B0860E0F80186850E947F0519
:100B900082E10E9454084981E42EC42E5A81D52E48
:100BA0008C2D8E198F1530F4F60181916F010E9402
:100BB0005408F6CF61E0F80186850E947F050F900A
:100BC0000F90DF91CF911F910F91FF90EF90DF90E9
:100BD000CF900C9453086F927F928F929F92AF9216
:100BE000BF92CF92DF92EF92FF920F931F93CF931A
:100BF000DF93EC014B01D42E59013801E114F104CB
:100C000019F0F701808101C080E0182FF0E1CF9E3C
:100C1000100D112440E062E0CE010E947C084FE7F5
:100C200068E0CE010E947C0840E864E1CE010E94A9
:100C30007C08A4016D2DCE010E94AF05412F6AE111
:100C4000CE010E947C084CE062E0CE010E947C084C
:100C50006AE1CE010E945E08482F40686AE1CE0139
:100C60000E947C0800ED17E068E0CE010E945E085B
:100C7000982F907339F480FD03C001501109A1F73A
:100C800083E071C06CE0CE010E945E08982E8371F3
:100C900009F068C0A114B10409F45CC061147104C6
:100CA00009F458C064E1CE010E945E08182FF301D8
:100CB0008081811708F452C01083112309F440C0C9
:100CC0008A899B890E945B0860E08E850E947F056F
:100CD00082E90E945408CC20A9F08FEF90E09C019B
:100CE00002C0220F331FCA94E2F7690182E90E9411
:100CF00054088C21C094F5019081C922C82AC08271
:100D000001E001C000E01150402F50E0011750F405
:100D10006501C40ED51E82E90E945408F601808345
:100D20000F5FF2CF8501040F151F80E00E94540869
:100D3000F801808361E08E850E947F050E94530840
:100D400068E1CE010E945E088770E114F10411F0A1
:100D5000F701808393FC04C080E005C084E003C0F9
:100D600082E001C081E0DF91CF911F910F91FF9050
:100D7000EF90DF90CF90BF90AF909F908F907F903B
:100D80006F900895CF93DF9390E0FC01E656FF4FFC
:100D90002491FC01EA57FF4F8491882361F190E090
:100DA000880F991FFC01EE58FF4FC591D491FC01AB
:100DB000E458FF4FA591B491611109C09FB7F89411
:100DC0008881209582238883EC912E230BC062308A
:100DD00061F49FB7F8943881822F809583238883AC
:100DE000EC912E2B2C939FBF06C08FB7F894E8810F
:100DF0002E2B28838FBFDF91CF9108958F929F92E2
:100E0000AF92BF92CF92DF92EF92FF926B017C0183
:100E10000E9416034B015C01C114D104E104F104EA
:100E2000F1F00E941603DC01CB0188199909AA0987
:100E3000BB09883E9340A105B10570F321E0C21AB9
:100E4000D108E108F10888EE880E83E0981EA11C05
:100E5000B11CC114D104E104F10419F7DDCFFF90F6
:100E6000EF90DF90CF90BF90AF909F908F900895BC
:100E70001F920F920FB60F9211242F933F938F93CF
:100E80009F93AF93BF9380915C0390915D03A0917A
:100E90005E03B0915F0330915B0323E0230F2D3796
:100EA00020F40196A11DB11D05C026E8230F02966E
:100EB000A11DB11D20935B0380935C0390935D03A0
:100EC000A0935E03B0935F038091600390916103F0
:100ED000A0916203B09163030196A11DB11D80939F
:100EE000600390936103A0936203B0936303BF9187
:100EF000AF919F918F913F912F910F900FBE0F90C7
:100F00001F9018950F931F93CF93DF93EC01888167
:100F10009981009729F02A813B812617370788F4A9
:100F20008B016F5F7F4F0E94DF11009761F0998303
:100F300088831B830A832C813D81232B11F4FC01C0
:100F4000108281E001C080E0DF91CF911F910F916D
:100F50000895EF92FF920F931F93CF93DF93FC01BD
:100F6000248135816115710511F480E019C04115A6
:100F70005105A9F07B01EC018A01020F131FB80192
:100F80000E948207882389F3288139818C819D8181
:100F9000B701820F931F0E94BF121D830C8381E053
:100FA000DF91CF911F910F91FF90EF900895CF9314
:100FB000DF93EC0188819981009711F00E9447111D
:100FC000198218821D821C821B821A82DF91CF91A6
:100FD0000895089580E090E00895DC01ED91FD9181
:100FE000BD010190F081E02D40E0099591E0811173
:100FF00090E0892F089541E00E943E0281E090E058
:101000000895CF93DF9387E992E00E94BE001816FF
:1010100019069CF4C091EC03D091ED03CE0101962A
:101020009093ED038093EC0387E992E00E949C008B
:10103000C455DC4F88838B3331F7E091EC03F0919A
:10104000ED031E161F0664F4E455FC4FDF011197F3
:101050008C918B3329F410821092ED031092EC03E3
:10106000DF91CF91089560E083E00E945B0388E602
:1010700091E00E94560361E082E00E945B0387E7F3
:1010800091E00E94560362E080E00E945B0388E8E2
:1010900091E00E94560363E085E00E945B038DE9C6
:1010A00091E00C94560308958EBD00000DB407FE28
:1010B000FDCF8EB508958CBD9DBD08951F93CF9330
:1010C000DF93EC01162F8A899B890E945B0860E000
:1010D0008E850E947F05812F80680E94540880E0E1
:1010E0000E945408182F61E08E850E947F05812F91
:1010F000DF91CF911F910895EF92FF921F93CF93AD
:10110000DF931F92CDB7DEB77C01162FFC018289D9
:10111000938949830E945B0860E0F70186850E94FD
:101120007F05812F0E9454084981842F0E94540812
:1011300061E0F70186850F90DF91CF911F91FF90BD
:10114000EF900C947F05AF92BF92CF92EF92FF92F7
:101150000F931F93CF93DF9300D000D01F92CDB792
:10116000DEB75C0182E08D8340E064E2C5010E944D
:101170007C0840E066E2C5010E947C0846E268E423
:10118000C5010E947C0886E28C838D81823038F113
:101190006CE1C5010E945E08482F4F776CE1C501E4
:1011A0000E947C0887E08B83C12CCE0103967C01D2
:1011B0008E010B5F1F4F9E012F5F3F4F41E0BE012D
:1011C0006C5F7F4FC5010E94EB0581110BC08D81C3
:1011D000823039F481E09B81911104C008C084E021
:1011E00001C081E091E0823019F090E001C091E00F
:1011F000892F0F900F900F900F900F90DF91CF914C
:101200001F910F91FF90EF90CF90BF90AF900895F6
:10121000CF92DF92EF92FF920F931F93CF93DF93C2
:10122000EC016B01142F790140E062E00E947C0820
:1012300044E06AE0CE010E947C0840E864E1CE010F
:101240000E947C08A601612FCE010E94AF0543E0F9
:1012500062E0CE010E947C0808E813E16AE0CE015A
:101260000E945E0882FF13C040E062E0CE010E944F
:101270007C0864E4CE010E945E08F701808362E48A
:10128000CE010E945E08F701818380E004C0015016
:10129000110921F783E0DF91CF911F910F91FF900A
:1012A000EF90DF90CF9008952F923F924F925F92F0
:1012B0006F927F928F929F92AF92BF92CF92DF9266
:1012C000EF92FF920F931F93CF93DF93CDB7DEB7CB
:1012D0002D970FB6F894DEBF0FBECDBF413508F095
:1012E00011C1342E4B015C016CE10E945E08482F55
:1012F0004F776CE1C5010E947C082224239444248A
:101300004394512C42E0241691F083E02816E1F03A
:1013100091E02912FBC083E989833320D1F081E079
:10132000F4019081953008F480E0D12C17C085E954
:101330008983332081F081E0F4019081983008F4B2
:1013400080E0F3E0DF2E0AC087E98983E6E0DE2E45
:1013500004C0D12C02C073E0D72E80E0532DF8EFEB
:10136000DF9E500D112457FD50E0882321F098E8AE
:101370009B8343E001C042E021E0952F977009F480
:1013800020E0952F959595959595290F29F488231B
:1013900009F496C0585F94C0811102C094E001C066
:1013A00093E0291708F4922F20E030E06D2D70E0D3
:1013B000E42FE20FA1E0B0E0AC0FBD1FAE0FB11DF6
:1013C000F901E60FF71FE80DF91DE181EC932F5F9E
:1013D0003F4F291768F3DBCF8111E4C050320CF086
:1013E00097C050E240E74A839C818B8189279D8189
:1013F00089279E8189278F839E01285F3F4F47E081
:10140000BE016F5F7F4FC5015D870E9408095D8542
:101410008111C8C01B8683E08A87FE0137963F0191
:1014200079E0CB844C2D4295407F4C0D6AE1C5019B
:101430005D877C870E947C08CE010B967C018E0123
:10144000065F1F4F93017C85472FBE016F5F7F4F63
:10145000C5010E94EB055D85823009F0BDCF6CE1CE
:10146000C5010E945E085D8585FD4EC08F7109F43F
:1014700080E290E0252F052E000C330B281739074A
:101480000CF044C001979C012770332743E09595E9
:1014900087954A95E1F78F5F91E02115310509F4B1
:1014A00090E0890FE1E0F0E0EC0FFD1FE80FF11D87
:1014B000C20101C0880F2A95EAF79081892B8083A9
:1014C00050320CF08FCF952F97709B87252F259545
:1014D0002595259582E0820F392FF0E18F9F300D01
:1014E00011243A8371E0911101C070E0780F6624F5
:1014F0006394712C6C0E7D1E680E711C87E0821B3C
:101500008A878FCF86E04EC082E04CC085E04AC01B
:101510008B81883809F043C033E023E080E090E01D
:101520006D2D70E0FC01E60FF71FE80DF91D432F4C
:10153000480FA1E0B0E0AC0FBD1FA40FB11D4C914E
:1015400041830196821770F38A85833021F58B855C
:10155000811121C09E012D5F3F4F41E0B301C501C4
:101560000E94080981111EC09B81F301818198139B
:1015700014C09C818281981310C0808182FF02C0B8
:101580002394C0CEF4018387822D880F280E2394E4
:10159000208280E007C081E005C087E003C032E020
:1015A00024E0BCCF2D960FB6F894DEBF0FBECDBFA2
:1015B000DF91CF911F910F91FF90EF90DF90CF902F
:1015C000BF90AF909F908F907F906F905F904F9063
:1015D0003F902F90089561E087E00E947F0561E0D1
:1015E00088E00E947F050E948B0360E088E00E94F3
:1015F0005B038BEB91E00E94560362E088E00E945F
:101600005B0381EC91E00C94560360E087E00E945C
:101610007F0560E088E00E947F050E948B0360E008
:1016200087E00E945B038BEB91E00E94560362E02F
:1016300087E00E945B0386EC91E00C945603809156
:10164000360260E08130D1F088E00E947F050E9480
:1016500001080E948B0360E080E00E945B038DEC38
:1016600091E00E94560361E080E00E945B0382EEFD
:1016700091E00E94560361E08AE031C088E00E9458
:101680007F050E9401080E948B0360E080E00E94B9
:101690005B038CEE91E00E94560361E080E00E94C3
:1016A0005B0382EE91E00E94560361E08AE00E94B3
:1016B0005B0380E090E00E94960362E080E00E947D
:1016C0005B0381E092E00E94560362E08AE00E94A0
:1016D0005B0380E090E00E94960363E080E00E945C
:1016E0005B0380E090E00E94960360E375E780E092
:1016F00090E00E94FE0661E088E00E947F050E9463
:101700008B030C9433088091370260E0813041F103
:1017100087E00E947F050E9401080E948B0360E021
:1017200080E00E945B038BE092E00E94560361E040
:1017300080E00E945B0382EE91E00E94560361E02C
:101740008AE00E945B0340914D0350914E036091EB
:10175000490370914A038FE493E00E94FD0B3FC060
:1017600087E00E947F050E9401080E948B0360E0D1
:1017700080E00E945B0380E292E00E94560361E0F9
:1017800080E00E945B0382EE91E00E94560361E0DC
:101790008AE00E945B0340914D0350914E0360919B
:1017A000490370914A038FE493E00E94FD0B62E0CD
:1017B00080E00E945B0381E092E00E94560362E0B9
:1017C0008AE00E945B0380E090E00E94960363E061
:1017D00080E00E945B0380E090E00E94960360E35B
:1017E00075E780E090E00E94FE0661E087E00E94DD
:1017F0007F050E948B030C943308CF92DF92EF9207
:10180000FF920F931F93CF93DF936C017A018B01AB
:10181000C0E0D0E0CE15DF0589F0D8016D918D01D3
:10182000D601ED91FC910190F081E02DC601099562
:10183000892B11F47E0102C02196ECCFC701DF9104
:10184000CF911F910F91FF90EF90DF90CF9008956F
:10185000EF92FF920F931F93CF93DF93EC011982C6
:1018600018821B821A821D821C826115710521F16A
:101870008B01FB0101900020E9F731977F01E61A07
:10188000F70AB7010E948207811109C0CE01DF91DA
:10189000CF911F910F91FF90EF900C94D707FD828D
:1018A000EC82B80188819981DF91CF911F910F91CE
:1018B000FF90EF900C94BF12DF91CF911F910F9189
:1018C000FF90EF9008956115710579F0FB0101908B
:1018D0000020E9F73197AF01461B570BDC01ED9172
:1018E000FC910280F381E02D099480E090E008955E
:1018F000CF93DF93CDB7DEB765970FB6F894DEBF11
:101900000FBECDBF789484B5826084BD84B58160FC
:1019100084BD85B5826085BD85B5816085BD8091BA
:101920006E00816080936E00109281008091810032
:10193000826080938100809181008160809381002A
:10194000809180008160809380008091B1008460EC
:101950008093B1008091B00081608093B00080914D
:101960007A00846080937A0080917A00826080930C
:101970007A0080917A00816080937A0080917A0069
:10198000806880937A001092C100E091A702F091E4
:10199000A80282E08083E091A302F091A402108269
:1019A000E091A502F091A6028FEC80831092AF0225
:1019B000E091AB02F091AC0286E08083E091A90255
:1019C000F091AA02808180618083E091A902F09168
:1019D000AA02808188608083E091A902F091AA0226
:1019E000808180688083E091A902F091AA028081C1
:1019F0008F7D80831FB7F89480913902811127C0B1
:101A0000E0E9F0E08491E4EAF0E09491E82FF0E07E
:101A1000EE0FFF1FEE58FF4FA591B491EC91E92313
:101A200021F461E08AE00E947F0561E08AE00E9483
:101A3000C2068CB580618CBD8CB580648CBD61E0C4
:101A40008DE00E94C20661E08BE00E94C206809198
:101A500039028F5F809339021FBF61E08091430399
:101A60000E94C20661E0809143030E947F0580913D
:101A700044038F3F41F44FE062E085E393E00E942E
:101A80007C0813E025C060E00E94C2062091440358
:101A900030E0F901E255FF4F8491F901E656FF4F1E
:101AA0000491F901EA57FF4F14911123F9F08111C4
:101AB0000E945605E12FF0E0EE0FFF1FE859FF4F9F
:101AC000A591B491EC91E02389F0D5CF1150F1F0BC
:101AD00062E370E080E090E00E94FE0662E085E351
:101AE00093E00E945E0884FF11C0F0CF61E0809116
:101AF00044030E94C20661E0809144030E947F0576
:101B000062E370E080E090E00E94FE0640E064E264
:101B100085E393E00E947C0840E066E285E393E081
:101B20000E947C0846E268E485E393E00E947C081A
:101B300040E864E585E393E00E947C0849EA66E5B5
:101B400085E393E00E947C0843E068E585E393E049
:101B50000E947C0848EE6AE585E393E00E947C08D9
:101B600040E46AE285E393E00E947C084DE362E290
:101B700085E393E00E947C0868E285E393E00E949D
:101B80005E08982F9370933039F0482F436068E2D5
:101B900085E393E00E947C0810925F0210925E023F
:101BA00010925B0210925C021092610281E08093BD
:101BB00063021092620261E082E10E947F0561E0AF
:101BC00083E10E947F058091B9008E7F8093B900E8
:101BD0008091B9008D7F8093B90088E48093B8002C
:101BE00085E48093BC0010925403809158038230A6
:101BF00018F098E09093540390915903992339F089
:101C0000813029F48091540384608093540362E30B
:101C100070E080E090E00E94FE0660915A038FE43D
:101C200093E00E94680168EE73E080E090E00E941B
:101C3000FE0660E38FE493E00E94CD010BE416E41E
:101C4000C8010197F1F760E38FE493E00E94CD01B2
:101C5000C8010197F1F760E38FE493E00E94CD01A2
:101C600083E592E00197F1F760E28FE493E00E9450
:101C7000CD0160915403606240E08FE493E00E94E4
:101C80003E0284E08093550340E06CE08FE493E0F3
:101C90000E943E020E948B0382E08093560340E044
:101CA00066E08FE493E00E943E0240E062E08FE451
:101CB00093E00E943E028BE39FE10197F1F761E020
:101CC00087E00E94C20661E088E00E94C20661E0EF
:101CD00086E00E94C20688E080935A0360E08FE4A9
:101CE00093E00E94680160E083E00E945B0388E665
:101CF00091E00E94560361E082E00E945B0387E767
:101D000091E00E94560362E080E00E945B0388E855
:101D100091E00E94560363E085E00E945B038DE939
:101D200091E00E94560327E8822E22E0922ECE01F7
:101D300001965C0133E2632E712C85E393E00E94EF
:101D4000A308882309F414C185E393E00E94ED07FA
:101D5000882309F40DC18091370398E3E92E93E0BD
:101D6000F92EE7E8F2E0D7019E2F9819981718F49A
:101D70009D919193F9CF6AEB71E0CE0140960E945C
:101D8000280C312C04E611E06701F70180811B86E5
:101D90001A861D861C861F861E8640E1B50190E0CE
:101DA0000E942910F50101900020E9F731972F01D9
:101DB0004A185B08B201CE010A960E94820781117F
:101DC00005C0CE010A960E94D70707C05F864E86DF
:101DD000B5018A859B850E94BF12FFEFEF1AFF0AAB
:101DE000F6018081803118F06AEB71E002C066E68E
:101DF00071E0C5010E94280C4E855F856A857B8550
:101E0000C5010E94A907811103C0C5010E94D7071F
:101E1000F80101900020E9F73197AF01401B510B09
:101E2000B801C5010E94A907882309F4A7C04D8104
:101E30005E8169817A81CE0140960E94A9078981DD
:101E40009A810E9447118A859B850E94471133948D
:101E5000F4E03F1631F093E0391294CF0AEB11E031
:101E600093CF0889198901151105E1F480E589836B
:101E70001A829E012D5F3F4F42E0B50185E393E05A
:101E80000E94080981111BC0C12CE12CF12C00E03B
:101E900010E020E030E044E0B50185E393E00E94EB
:101EA000EB050DC0F8018081882301F3082E000C9A
:101EB000990B0E94AE12F80181938F01F3CF8CE051
:101EC00091E00E943D038823B9F08091370281118F
:101ED0000AC088EA91E00E9415040E94830B81E009
:101EE0008093370241C08CEA91E00E9415040E9461
:101EF000830B1092370238C088E091E00E943D03C6
:101F00008823B9F08091360281110AC080EB91E0FC
:101F10000E9415040E941F0B81E08093360224C0AA
:101F200084EB91E00E9415040E941F0B1092360270
:101F30001BC084E091E00E943D03882379F08091EA
:101F40003A02811106C00E94050B81E080933A029B
:101F50000BC00E94EB0A10923A0206C080E091E0AA
:101F60000E943D038111EBCF888999890E94471116
:101F7000C3010197F1F70E945E01DFCEC5010E9407
:101F8000D70755CFEBE8F2E01382128288EE93E098
:101F9000A0E0B0E084839583A683B78322E231E09A
:101FA00031832083E7E9F2E01382128284839583F0
:101FB000A683B78384E391E09183808385EC90E0EE
:101FC0009587848784EC90E09787868780EC90E003
:101FD000918B808B81EC90E0938B828B82EC90E0F4
:101FE000958B848B86EC90E0978B868B118E128E6E
:101FF000138E148EEFE4F3E01382128286E491E0F4
:10200000918380838FE3848384E1808784E0818768
:10201000128688E083876AEB71E089E493E00E948E
:10202000280CE5E3F3E08EE591E0918380838AE07C
:10203000868789E0878784E393E0918B808B83E5B3
:10204000828B138A08958091490390914A030C94DE
:102050004711BB27FB015527AA27880F991FAA1FE5
:10206000A41710F0A41B83955051B9F7A05DAA33B3
:1020700008F0A95DA193009779F7B111B19311927E
:10208000CB010C944310DC01FC01672F7191772385
:10209000E1F7329704C07C916D9370836291AE1723
:1020A000BF07C8F308952F923F924F925F926F92AD
:1020B0007F928F929F92AF92BF92CF92DF92EF92D8
:1020C000FF920F931F93CF93DF93CDB7DEB7CA1B59
:1020D000DB0B0FB6F894DEBF0FBECDBF09942A8884
:1020E000398848885F846E847D848C849B84AA842C
:1020F000B984C884DF80EE80FD800C811B81AA81B9
:10210000B981CE0FD11D0FB6F894DEBF0FBECDBF83
:10211000ED010895A1E21A2EAA1BBB1BFD010DC003
:10212000AA1FBB1FEE1FFF1FA217B307E407F50787
:1021300020F0A21BB30BE40BF50B661F771F881F63
:10214000991F1A9469F760957095809590959B01F9
:10215000AC01BD01CF010895EE0FFF1F0590F49172
:10216000E02D0994CF93DF938230910510F482E043
:1021700090E0E091F003F091F10320E030E0C0E066
:10218000D0E0309711F14081518148175907C0F0D4
:102190004817590761F482819381209719F09B8336
:1021A0008A832BC09093F1038093F00326C02115FE
:1021B000310519F04217530718F49A01BE01DF01E7
:1021C000EF010280F381E02DDCCF2115310509F10B
:1021D000281B390B2430310590F412968D919C9177
:1021E00013976115710521F0FB019383828304C06D
:1021F0009093F1038093F003FD01329644C0FD01FA
:10220000E20FF31F81939193225031092D933C9358
:102210003AC02091EE033091EF03232B41F420913B
:102220001201309113013093EF032093EE032091BC
:102230001001309111012115310541F42DB73EB740
:102240004091140150911501241B350BE091EE03D0
:10225000F091EF03E217F307A0F42E1B3F0B2817B2
:10226000390778F0AC014E5F5F4F2417350748F00F
:102270004E0F5F1F5093EF034093EE0381939193B2
:1022800002C0E0E0F0E0CF01DF91CF9108950F931D
:102290001F93CF93DF93009709F48CC0FC01329712
:1022A000138212820091F0031091F10301151105C0
:1022B00081F420813181820F931F2091EE033091B0
:1022C000EF032817390779F5F093EF03E093EE0356
:1022D00071C0D80140E050E0AE17BF0750F412962D
:1022E0002D913C911397AD012115310509F1D901CB
:1022F000F3CF9D01DA013383228360817181860FE0
:10230000971F8217930769F4EC0128813981260F02
:10231000371F2E5F3F4F318320838A819B819383B8
:102320008283452B29F4F093F103E093F00342C03C
:102330001396FC93EE931297ED01499159919E01EA
:10234000240F351FE217F30771F480819181840F08
:10235000951F029611969C938E938281938113967A
:102360009C938E931297E0E0F0E0D80112968D9145
:102370009C911397009719F0F8018C01F6CF8D917D
:102380009C9198012E5F3F4F820F931F2091EE0387
:102390003091EF032817390769F4309729F4109228
:1023A000F1031092F00302C0138212821093EF0324
:1023B0000093EE03DF91CF911F910F910895A0E05C
:1023C000B0E0E5EEF1E10C945710EC01009721F438
:1023D000CB010E94B210B8C0FC01E60FF71F9C01B0
:1023E00022503109E217F30708F4ACC0D9010D916E
:1023F0001C91119706171707B0F00530110508F466
:102400009FC0C80104978617970708F499C0025027
:102410001109061B170B019311936D937C93CF0148
:102420000E9447118DC05B01A01AB10A4C01800EB9
:10243000911EA091F003B091F10340E050E0E12C37
:10244000F12C109709F44AC0A815B905D1F56D9083
:102450007C901197630182E0C80ED11CCA14DB0482
:1024600080F1A3014A195B096A0182E0C80ED11C00
:102470001296BC9012971396AC91B5E0CB16D1048E
:1024800040F0B282A38351834083D9016D937C9342
:102490000AC00E5F1F4FC301800F911FF901918386
:1024A0008083EB2DFA2FE114F10431F0D70113965C
:1024B000FC93EE93129744C0F093F103E093F00382
:1024C0003FC08D919C9111974817590708F4AC01B2
:1024D0007D0112960D90BC91A02DB3CF8091EE039B
:1024E0009091EF0388159905E1F446175707C8F452
:1024F0008091100190911101009741F48DB79EB722
:102500004091140150911501841B950BE817F907B0
:10251000C8F4F093EF03E093EE03F9017183608355
:102520000FC0CB010E94B2107C01009759F0A801A6
:10253000BE010E94B612CE010E944711C70104C01D
:10254000CE0102C080E090E0CDB7DEB7EEE00C94A3
:10255000731081E090E0F8940C94C61291110895E4
:1025600081568A5108F4805285580895FB01DC0198
:1025700002C001900D9241505040D8F70895FB01E0
:10258000DC0101900D920020E1F7089510E0C2E611
:10259000D0E004C0FE010E94AC102196C336D107E2
:0625A000C9F7F894FFCF1B
:1025A600D3588063DB7A3DD9185EA889F1A73B5BD7
:1025B6000000F203800000004000140054000000F8
:1025C6000000E702B702EA079102AF02A0029202F8
:1025D60000000000F500FD0B8D003C01BE009C00D4
:1025E600B00000000000FB07FD0BEA07E90700004A
:1025F60000003B03FD0BEA07E90700000000540951
:10260600A308ED073A0030005452554F4E47204478
:10261600414920484F43005355205048414D204BD7
:10262600592054485541540048652054686F6E67D8
:102636002043686F20546875652058650054686F9C
:102646006E67204D696E680058314D005831540050
:1026560058324D00583254000D0A0041646D696EBF
:10266600004C6F636B00556E6C6F636B0058616353
:10267600206E68616E206C617920786520736F200A
:10268600320047696F206C61793A200058616320F7
:102696006E68616E2074726120786520736F2032D7
:1026A6000047696F207472613A2000586163206E9A
:1026B60068616E206C617920786520736F20310027
:1026C600586163206E68616E20747261207865209F
:0626D600736F20310000CB
:00000001FF
