:100000000C9463000C948B000C948B000C948B006C
:100010000C948B000C948B000C948B000C948B0034
:100020000C948B000C948B000C948B000C948B0024
:100030000C948B000C948B000C948B000C948B0014
:100040000C9479070C948B000C9409020C94E30136
:100050000C948B000C948B000C948B000C948B00F4
:100060000C9469040C948B0000000000230026000F
:10007000290000000000240027002A0000000000E2
:10008000250028002B0004040404040404040202D4
:100090000202020203030303030301020408102007
:1000A0004080010204081020010204081020000012
:1000B0000008000201000003040700000000000027
:1000C0000000930FF40F11241FBECFEFD8E0DEBF66
:1000D000CDBF23E0A6E3B2E001C01D92A23BB20770
:1000E000E1F712E0A0E0B1E0E8E4F5E202C005903B
:1000F0000D92A633B107D9F710E0C2E6D0E004C0F4
:100100002197FE010E947D10C136D107C9F70E94D8
:10011000490C0C9497120C940000CF92DF92EF924E
:10012000FF920F931F93CF93DF936C017A018B01A2
:10013000C0E0D0E0CE15DF0589F0D8016D918D01CA
:10014000D601ED91FC910190F081E02DC601099559
:10015000892B11F47E0102C02196ECCFC701DF91FB
:10016000CF911F910F91FF90EF90DF90CF90089566
:10017000FC01538D448D252F30E0842F90E0821BAD
:10018000930B541710F0CF96089501970895FC0132
:10019000918D828D981761F0828DDF01A80FB11DBE
:1001A0005D968C91928D9F5F9F73928F90E00895E2
:1001B0008FEF9FEF0895FC01918D828D981731F09C
:1001C000828DE80FF11D858D90E008958FEF9FEFF0
:1001D0000895FC01918D228D892F90E0805C9F4FC6
:1001E000821B91098F739927089587E992E00E94F5
:1001F000E90021E0892B09F420E0822F0895FC0119
:10020000848DDF01A80FB11DA35ABF4F2C91848D9F
:1002100090E001968F739927848FA689B7892C93D4
:10022000A089B1898C9180648C93938D848D98136F
:1002300006C00288F389E02D80818F7D8083089538
:10024000EF92FF920F931F93CF93DF93EC0181E026
:10025000888F9B8D8C8D981305C0E889F9898081E2
:1002600085FD24C0F62E0B8D10E00F5F1F4F0F731E
:100270001127E02E8C8DE8120CC00FB607FCFACFC8
:10028000E889F989808185FFF5CFCE010E94FF00C2
:10029000F1CF8B8DFE01E80FF11DE35AFF4FF08285
:1002A0000B8FEA89FB898081806207C0EE89FF8914
:1002B0006083E889F98980818064808381E090E0AF
:1002C000DF91CF911F910F91FF90EF900895CF9301
:1002D000DF93EC01888D8823C9F0EA89FB8980814E
:1002E00085FD05C0A889B9898C9186FD0FC00FB620
:1002F00007FCF5CF808185FFF2CFA889B9898C9161
:1003000085FFEDCFCE010E94FF00E7CFDF91CF91B7
:10031000089580E090E0892B29F00E94F50081117A
:100320000C9400000895EF92FF920F931F93CF93C8
:10033000DF93EC01198218821B821A821D821C82B3
:100340006115710521F18B01FB0101900020E9F796
:1003500031977F01E61AF70AB7010E94C30781119E
:1003600009C0CE01DF91CF911F910F91FF90EF90C7
:100370000C941808FD82EC82B80188819981DF9184
:10038000CF911F910F91FF90EF900C949012DF91FD
:10039000CF911F910F91FF90EF9008956115710516
:1003A00079F0FB0101900020E9F73197AF01461B7E
:1003B000570BDC01ED91FC910280F381E02D099453
:1003C00080E090E008951F920F920FB60F921124D3
:1003D0002F933F934F935F936F937F938F939F934D
:1003E000AF93BF93EF93FF9387E992E00E94FF00E2
:1003F000FF91EF91BF91AF919F918F917F916F91FD
:100400005F914F913F912F910F900FBE0F901F90D2
:1004100018951F920F920FB60F9211242F938F935E
:100420009F93EF93FF93E091A702F091A802808140
:10043000E091AD02F091AE0282FD12C090818091F8
:10044000B0028F5F8F732091B102821751F0E0915B
:10045000B002F0E0E956FD4F958F8093B00201C0E5
:100460008081FF91EF919F918F912F910F900FBEFF
:100470000F901F901895CF93FC01C48121E0209329
:100480005D02C093380210925B0210925C02838579
:10049000682B8BE892E00E94280380915C028132F5
:1004A00008F046C0909161029111FCCF92E09093C8
:1004B000610291E0909363029FEF9093600210922B
:1004C000850280938402ABE3B2E024E632E0F901D6
:1004D0009E2F921B981718F49D919193F9CF10922B
:1004E000860280918602CC0FC82BC0938602809131
:1004F0006202813061F410926202809186028093E0
:10050000BB008091BC0083FDF8CF85EC01C085EE77
:100510008093BC00809161028230E1F3809160029F
:100520008F3F31F080916002803211F08091600243
:1005300010925B0210925C0210925D02CF910895BE
:1005400085ED8093BC008091BC0084FDFCCF1092AF
:100550006102089540918603262F30E0240F311D5B
:1005600021323105DCF4209161022430C9F4FC0110
:1005700080E090E0861758F4309186032191DC01E9
:10058000AC59BC4FA30FB11D2C930196F3CF8091B2
:100590008603680F6093860380E0089581E00895E4
:1005A00082E00895089581E090E030915F0220910B
:1005B0005E02321710F480E090E0919581959109E8
:1005C000089580915F0290915E02891730F48F5FE9
:1005D00080935F0280E090E008958FEF9FEF089591
:1005E00080915E0290E020915F02821B9109089544
:1005F000CF92DF92EF92FF920F931F93CF93DF93EF
:100600007C01262F972F8A0180915D02882391F02B
:10061000C62FD72F6E01C40ED51ECC15DD0571F087
:100620006991D701ED91FC910190F081E02DC70116
:100630000995F3CF642F822F0E94AA02C801DF918F
:10064000CF911F910F91FF90EF90DF90CF90089581
:10065000CF93DF931F92CDB7DEB7698320915D0200
:100660002223D1F020915C02203240F021E030E0E2
:10067000FC013383228380E090E015C080915B020F
:10068000E82FF0E0E55CFD4F998190838F5F8093C8
:100690005B0280935C0205C061E0CE0101960E947E
:1006A000AA0281E090E00F90DF91CF9108953FB7CB
:1006B000F8948091600390916103A0916203B091DE
:1006C000630326B5A89B05C02F3F19F00196A11D15
:1006D000B11D3FBFBA2FA92F982F8827820F911DD8
:1006E000A11DB11DBC01CD0142E0660F771F881F1F
:1006F000991F4A95D1F708950E947A12282F809168
:100700008702882319F081E08093AB038091AB03CB
:10071000A7E8B2E0E22FF92F2D919191291380E003
:1007200092E0AB38B907C1F78093AB030895BC01E1
:100730008FE493E00C94CE01CF93DF93CDB7DEB777
:1007400028970FB6F894DEBF0FBECDBF28E0E6E1D4
:10075000F1E0DE01119601900D922A95E1F72091CA
:100760005803261710F46FEF620FFE013196E60F63
:10077000F11DE60FF11D9081682F690F606840E060
:100780008FE493E028960FB6F894DEBF0FBECDBF7E
:10079000DF91CF910C94750840E061E08FE493E025
:1007A0000E9475088BE39FE10197F1F708958F92FE
:1007B0009F92AF92BF92CF92DF92EF92FF920F93F0
:1007C0001F93CF93DF93CDB7DEB7A1970FB6F89401
:1007D000DEBF0FBECDBF6C01990FEE08FF08F7FE1C
:1007E00033C0E0914F03F09150030190F081E02D70
:1007F0006DE28FE493E009958C0122273327A9014C
:100800002C193D094E095F0919A2CE0181967C0180
:100810009AE0892E912CA12CB12CCA01B901A50115
:1008200094010E945B10605DF70162937F012115C6
:1008300031054105510589F7BF018FE493E00E941E
:10084000CE01800F911F1FC0A701960119A28E0132
:100850000F5D1F4F8AE0C82ED12CE12CF12CCA016C
:10086000B901A70196010E945B10605DF8016293D7
:100870008F01211531054105510589F7BF018FE42D
:1008800093E00E94CE01A1960FB6F894DEBF0FBE92
:10089000CDBFDF91CF911F910F91FF90EF90DF902F
:1008A000CF90BF90AF909F908F900895CF93DF939C
:1008B000BC0187E992E00E94CE01EC0168EB71E097
:1008C00087E992E00E94CE018C0F9D1FDF91CF91AE
:1008D00008951F920F920FB60F9211242F933F93FA
:1008E0004F935F936F937F938F939F93AF93BF9338
:1008F000EF93FF938091B900887F803609F49CC004
:1009000068F5883209F45BC090F4803109F454C072
:1009100038F4882309F4F6C0883009F44DC0F6C0D5
:10092000883109F44CC0803209F45DC0EFC08034D6
:1009300009F468C048F4803309F455C0883309F0DD
:10094000E5C080936002D8C0803509F44FC0883577
:1009500009F45DC0883409F0D9C0D6C0883909F4DB
:10096000C7C0A8F4883709F467C038F4883609F49A
:1009700063C0803709F460C0C9C0883809F4B8C0C2
:10098000803909F45FC0803809F0C0C05BC0803B8B
:1009900009F486C038F4803A09F466C0883A09F44C
:1009A0007FC0B4C0803C09F4A7C0883C09F4A4C04F
:1009B000883B09F48AC0AAC08091860210C0909139
:1009C000850280918402981770F5E091850281E09C
:1009D0008E0F80938502F0E0EC59FD4F808180936B
:1009E000BB0085EC86C0809360028EC0E0918502DA
:1009F00081E08E0F809385028091BB00F0E0EC597E
:100A0000FD4F808390918502809184026EC0E091B9
:100A1000850281E08E0F809385028091BB00F0E01B
:100A2000EC59FD4F80838091630281116DC081E09C
:100A30008093620284EA61C083E080936102109235
:100A4000AA03CFCF8091AA03803208F051C0E09171
:100A5000AA0381E08E0F8093AA038091BB00F0E08F
:100A6000E657FC4F8083BDCF85EC8093BC0010928D
:100A700061028091AA03803230F4E091AA03F0E091
:100A8000E657FC4F10826091AA0370E0E091880362
:100A9000F09189038AE893E009951092AA0336C081
:100AA00084E0809361021092870310928603E091A4
:100AB0008403F0918503099580918603811105C017
:100AC00081E08093860310926403E091870381E0C4
:100AD0008E0F80938703F0E0EC59FC4F8081809368
:100AE000BB009091870380918603981708F479CF13
:100AF00085E88093BC000AC085EC8093BC0010920E
:100B0000610204C0109260020E94A002FF91EF9166
:100B1000BF91AF919F918F917F916F915F914F9115
:100B20003F912F910F900FBE0F901F90189583301B
:100B300081F028F4813099F08230A1F00895873057
:100B4000A9F08830B9F08430D1F4809180008F7D95
:100B500003C0809180008F7780938000089584B5D2
:100B60008F7702C084B58F7D84BD08958091B000D9
:100B70008F7703C08091B0008F7D8093B00008957F
:100B80001F93CF93DF93282F30E0F901E255FF4FF9
:100B90008491F901E656FF4FD491F901EA57FF4FCE
:100BA000C491CC23C9F0162F81110E949705EC2F18
:100BB000F0E0EE0FFF1FE458FF4FA591B4918FB7FF
:100BC000F894111105C09C91ED2FE095E92302C026
:100BD000EC91ED2BEC938FBFDF91CF911F91089596
:100BE000CF92DF92EF92FF920F931F93CF93DF93F9
:100BF00000D0CDB7DEB78C01F62EFC018289938937
:100C000049835A830E94A40860E0F80186850E9407
:100C1000C00582E10E949D084981E42EC42E5A81BC
:100C2000D52E8C2D8E198F1530F4F60181916F0120
:100C30000E949D08F6CF61E0F80186850E94C005FC
:100C40000F900F90DF91CF911F910F91FF90EF9038
:100C5000DF90CF900C949C086F927F928F929F921E
:100C6000AF92BF92CF92DF92EF92FF920F931F93BA
:100C7000CF93DF93EC014B01D42E59013801E114DD
:100C8000F10419F0F701808101C080E0182FF0E134
:100C9000CF9E100D112440E062E0CE010E94C508F5
:100CA0004FE768E0CE010E94C50840E864E1CE014C
:100CB0000E94C508A4016D2DCE010E94F005412FB0
:100CC0006AE1CE010E94C5084CE062E0CE010E94BC
:100CD000C5086AE1CE010E94A708482F40686AE172
:100CE000CE010E94C50800ED17E068E0CE010E9429
:100CF000A708982F907339F480FD03C001501109A3
:100D0000A1F783E071C06CE0CE010E94A708982E85
:100D1000837109F068C0A114B10409F45CC06114C6
:100D2000710409F458C064E1CE010E94A708182F8D
:100D3000F3018081811708F452C01083112309F454
:100D400040C08A899B890E94A40860E08E850E9429
:100D5000C00582E90E949D08CC20A9F08FEF90E0A9
:100D60009C0102C0220F331FCA94E2F7690182E995
:100D70000E949D088C21C094F5019081C922C82A47
:100D8000C08201E001C000E01150402F50E0011787
:100D900050F46501C40ED51E82E90E949D08F6013B
:100DA00080830F5FF2CF8501040F151F80E00E9442
:100DB0009D08F801808361E08E850E94C0050E9435
:100DC0009C0868E1CE010E94A7088770E114F10435
:100DD00011F0F701808393FC04C080E005C084E03B
:100DE00003C082E001C081E0DF91CF911F910F919C
:100DF000FF90EF90DF90CF90BF90AF909F908F903B
:100E00007F906F900895CF93DF9390E0FC01E656BA
:100E1000FF4F2491FC01EA57FF4F8491882361F131
:100E200090E0880F991FFC01EE58FF4FC591D491B7
:100E3000FC01E458FF4FA591B491611109C09FB71F
:100E4000F8948881209582238883EC912E230BC00F
:100E5000623061F49FB7F8943881822F80958323A4
:100E60008883EC912E2B2C939FBF06C08FB7F894EC
:100E7000E8812E2B28838FBFDF91CF9108958F9229
:100E80009F92AF92BF92CF92DF92EF92FF926B014F
:100E90007C010E9457034B015C01C114D104E104A1
:100EA000F104F1F00E945703DC01CB018819990984
:100EB000AA09BB09883E9340A105B10570F321E062
:100EC000C21AD108E108F10888EE880E83E0981E66
:100ED000A11CB11CC114D104E104F10419F7DDCF48
:100EE000FF90EF90DF90CF90BF90AF909F908F904A
:100EF00008951F920F920FB60F9211242F933F93D4
:100F00008F939F93AF93BF9380915C0390915D0308
:100F1000A0915E03B0915F0330915B0323E0230F48
:100F20002D3720F40196A11DB11D05C026E8230F21
:100F30000296A11DB11D20935B0380935C039093E7
:100F40005D03A0935E03B0935F0380916003909173
:100F50006103A0916203B09163030196A11DB11DCD
:100F60008093600390936103A0936203B093630343
:100F7000BF91AF919F918F913F912F910F900FBE95
:100F80000F901F9018950F931F93CF93DF93EC0151
:100F900088819981009729F02A813B81261737079C
:100FA00088F48B016F5F7F4F0E94B011009761F052
:100FB000998388831B830A832C813D81232B11F421
:100FC000FC01108281E001C080E0DF91CF911F9190
:100FD0000F910895EF92FF920F931F93CF93DF939A
:100FE000FC01248135816115710511F480E019C07F
:100FF00041155105A9F07B01EC018A01020F131F75
:10100000B8010E94C307882389F3288139818C8124
:101010009D81B701820F931F0E9490121D830C8344
:1010200081E0DF91CF911F910F91FF90EF90089594
:10103000CF93DF93EC0188819981009711F00E9492
:101040001811198218821D821C821B821A82DF915C
:10105000CF910895089580E090E00895DC01ED912E
:10106000FD91BD010190F081E02D40E0099591E0F6
:10107000811190E0892F089560E083E00E949C0335
:1010800088E691E00E94970361E082E00E949C0361
:1010900087E791E00E94970362E080E00E949C0352
:1010A00088E891E00E94970363E085E00E949C033A
:1010B0008DE991E00C9497030F931F93CF938C01CC
:1010C000C62F0E943B026C2F6460C8010E943B0245
:1010D0006C2F6B7FC8010E943B0283EC90E001976C
:1010E000F1F7CF911F910F910895FF920F931F93E6
:1010F000CF93DF931F92CDB7DEB78C01F62E962FDC
:10110000907F692F642BC80149830E945C0880E1AD
:10111000F89EB00111244981642BC8010F90DF9122
:10112000CF911F910F91FF900C945C0841E00E94B9
:10113000750881E090E0089508958EBD00000DB41B
:1011400007FEFDCF8EB508958CBD9DBD08951F93FC
:10115000CF93DF93EC01162F8A899B890E94A40804
:1011600060E08E850E94C005812F80680E949D08E6
:1011700080E00E949D08182F61E08E850E94C005C6
:10118000812FDF91CF911F910895EF92FF921F93CE
:10119000CF93DF931F92CDB7DEB77C01162FFC01F2
:1011A0008289938949830E94A40860E0F7018685BB
:1011B0000E94C005812F0E949D084981842F0E94B2
:1011C0009D0861E0F70186850F90DF91CF911F9117
:1011D000FF90EF900C94C005AF92BF92CF92EF9228
:1011E000FF920F931F93CF93DF9300D000D01F92F5
:1011F000CDB7DEB75C0182E08D8340E064E2C501DB
:101200000E94C50840E066E2C5010E94C50846E2AA
:1012100068E4C5010E94C50886E28C838D81823016
:1012200038F16CE1C5010E94A708482F4F776CE1A7
:10123000C5010E94C50887E08B83C12CCE010396AF
:101240007C018E010B5F1F4F9E012F5F3F4F41E0DE
:10125000BE016C5F7F4FC5010E942C0681110BC03F
:101260008D81823039F481E09B81911104C008C0E6
:1012700084E001C081E091E0823019F090E001C08B
:1012800091E0892F0F900F900F900F900F90DF91AA
:10129000CF911F910F91FF90EF90CF90BF90AF90A3
:1012A0000895CF92DF92EF92FF920F931F93CF9307
:1012B000DF93EC016B01142F790140E062E00E94A2
:1012C000C50844E06AE0CE010E94C50840E864E138
:1012D000CE010E94C508A601612FCE010E94F00533
:1012E00043E062E0CE010E94C50808E813E16AE02D
:1012F000CE010E94A70882FF13C040E062E0CE0149
:101300000E94C50864E4CE010E94A708F70180830B
:1013100062E4CE010E94A708F701818380E004C047
:101320000150110921F783E0DF91CF911F910F91B7
:10133000FF90EF90DF90CF9008952F923F924F92C1
:101340005F926F927F928F929F92AF92BF92CF9255
:10135000DF92EF92FF920F931F93CF93DF93CDB75E
:10136000DEB72D970FB6F894DEBF0FBECDBF413567
:1013700008F011C1342E4B015C016CE10E94A708FA
:10138000482F4F776CE1C5010E94C50822242394A1
:1013900044244394512C42E0241691F083E0281613
:1013A000E1F091E02912FBC083E989833320D1F079
:1013B00081E0F4019081953008F480E0D12C17C0D1
:1013C00085E98983332081F081E0F40190819830B0
:1013D00008F480E0F3E0DF2E0AC087E98983E6E0C5
:1013E000DE2E04C0D12C02C073E0D72E80E0532D36
:1013F000F8EFDF9E500D112457FD50E0882321F0B7
:1014000098E89B8343E001C042E021E0952F97706C
:1014100009F420E0952F959595959595290F29F438
:10142000882309F496C0585F94C0811102C094E0EB
:1014300001C093E0291708F4922F20E030E06D2DD1
:1014400070E0E42FE20FA1E0B0E0AC0FBD1FAE0FE3
:10145000B11DF901E60FF71FE80DF91DE181EC93CD
:101460002F5F3F4F291768F3DBCF8111E4C0503263
:101470000CF097C050E240E74A839C818B8189271A
:101480009D8189279E8189278F839E01285F3F4FF9
:1014900047E0BE016F5F7F4FC5015D870E94510924
:1014A0005D858111C8C01B8683E08A87FE0137965F
:1014B0003F0179E0CB844C2D4295407F4C0D6AE191
:1014C000C5015D877C870E94C508CE010B967C0113
:1014D0008E01065F1F4F93017C85472FBE016F5F12
:1014E0007F4FC5010E942C065D85823009F0BDCF7B
:1014F0006CE1C5010E94A7085D8585FD4EC08F7116
:1015000009F480E290E0252F052E000C330B2817FC
:1015100039070CF044C001979C012770332743E042
:10152000959587954A95E1F78F5F91E021153105F3
:1015300009F490E0890FE1E0F0E0EC0FFD1FE80F07
:10154000F11DC20101C0880F2A95EAF79081892B0D
:10155000808350320CF08FCF952F97709B87252F6B
:1015600025952595259582E0820F392FF0E18F9FF3
:10157000300D11243A8371E0911101C070E0780FB1
:1015800066246394712C6C0E7D1E680E711C87E0BE
:10159000821B8A878FCF86E04EC082E04CC085E0F8
:1015A0004AC08B81883809F043C033E023E080E0F3
:1015B00090E06D2D70E0FC01E60FF71FE80DF91DBE
:1015C000432F480FA1E0B0E0AC0FBD1FA40FB11D29
:1015D0004C9141830196821770F38A85833021F5FF
:1015E0008B85811121C09E012D5F3F4F41E0B301EA
:1015F000C5010E94510981111EC09B81F3018181A7
:10160000981314C09C818281981310C0808182FF3E
:1016100002C02394C0CEF4018387822D880F280E48
:101620002394208280E007C081E005C087E003C0EA
:1016300032E024E0BCCF2D960FB6F894DEBF0FBE8B
:10164000CDBFDF91CF911F910F91FF90EF90DF9071
:10165000CF90BF90AF909F908F907F906F905F9052
:101660004F903F902F90089561E087E00E94C00561
:1016700061E088E00E94C0050E94CC0360E088E041
:101680000E949C038BEB91E00E94970362E088E04C
:101690000E949C0381EC91E00C94970360E087E04A
:1016A0000E94C00560E088E00E94C0050E94CC0353
:1016B00060E087E00E949C038BEB91E00E9497031F
:1016C00062E087E00E949C0386EC91E00C94970313
:1016D0008091360260E08130C1F088E00E94C00550
:1016E0000E94CC0360E080E00E949C038DEC91E0BE
:1016F0000E94970361E080E00E949C0382EE91E0EB
:101700000E94970361E08AE02FC088E00E94C00534
:101710000E94CC0360E080E00E949C038CEE91E08C
:101720000E94970361E080E00E949C0382EE91E0BA
:101730000E94970361E08AE00E949C0380E090E0B1
:101740000E94D70362E080E00E949C0381E092E067
:101750000E94970362E08AE00E949C0380E090E090
:101760000E94D70363E080E00E949C0380E090E049
:101770000E94D70360E375E780E090E00E943F0796
:1017800061E088E00E94C0050E94CC030C943C08F4
:1017900080913702813039F160E087E00E94C00516
:1017A0000E94CC0360E080E00E949C038BE092E00A
:1017B0000E94970361E080E00E949C0382EE91E02A
:1017C0000E94970361E08AE00E949C0340914D03D0
:1017D00050914E036091490370914A038FE493E066
:1017E0000E948D0048C087E992E00E94C700909354
:1017F000AD038093AC0360E087E00E94C0050E94C7
:10180000CC0360E080E00E949C0380E292E00E94B2
:10181000970361E080E00E949C0382EE91E00E94C9
:10182000970361E08AE00E949C0340914D03509130
:101830004E036091490370914A038FE493E00E9444
:101840008D0062E080E00E949C0381E092E00E94B3
:10185000970362E08AE00E949C0380E090E00E948F
:10186000D70363E080E00E949C038091AC039091D9
:10187000AD030E94D70360E375E780E090E00E942B
:101880003F0761E087E00E94C0050E94CC030C94F2
:101890003C08CF93DF93CDB7DEB765970FB6F894CA
:1018A000DEBF0FBECDBF789484B5826084BD84B5A1
:1018B000816084BD85B5826085BD85B5816085BD4B
:1018C00080916E00816080936E0010928100809103
:1018D000810082608093810080918100816080938B
:1018E0008100809180008160809380008091B100B0
:1018F00084608093B1008091B00081608093B000DB
:1019000080917A00846080937A0080917A0082606E
:1019100080937A0080917A00816080937A00809130
:101920007A00806880937A001092C100E091A7024B
:10193000F091A80282E08083E091A302F091A402DA
:101940001082E091A502F091A6028FEC80831092A4
:10195000AF02E091AB02F091AC0286E08083E091AF
:10196000A902F091AA02808180618083E091A9029E
:10197000F091AA02808188608083E091A902F091B1
:10198000AA02808180688083E091A902F091AA0276
:1019900080818F7D80831FB7F894809139028111F7
:1019A00027C0E0E9F0E08491E4EAF0E09491E82FC8
:1019B000F0E0EE0FFF1FEE58FF4FA591B491EC91B0
:1019C000E92321F461E08AE00E94C00561E08AE039
:1019D0000E9403078CB580618CBD8CB580648CBD82
:1019E00061E08DE00E94030761E08BE00E94030745
:1019F000809139028F5F809339021FBF61E080912F
:101A000043030E94030761E0809143030E94C005E5
:101A1000809144038F3F41F44FE062E085E393E01F
:101A20000E94C50813E025C060E00E9403072091D2
:101A3000440330E0F901E255FF4F8491F901E65685
:101A4000FF4F0491F901EA57FF4F14911123F9F068
:101A500081110E949705E12FF0E0EE0FFF1FE8597A
:101A6000FF4FA591B491EC91E02389F0D5CF1150AF
:101A7000F1F062E370E080E090E00E943F0762E0F6
:101A800085E393E00E94A70884FF11C0F0CF61E0D6
:101A9000809144030E94030761E0809144030E9407
:101AA000C00562E370E080E090E00E943F0740E004
:101AB00064E285E393E00E94C50840E066E285E3C6
:101AC00093E00E94C50846E268E485E393E00E9443
:101AD000C50840E864E585E393E00E94C50849EA4B
:101AE00066E585E393E00E94C50843E068E585E389
:101AF00093E00E94C50848EE6AE585E393E00E9402
:101B0000C50840E46AE285E393E00E94C5084DE31E
:101B100062E285E393E00E94C50868E285E393E012
:101B20000E94A708982F9370933039F0482F436094
:101B300068E285E393E00E94C50810925F0210926C
:101B40005E0210925B0210925C021092610281E0D0
:101B5000809363021092620261E082E10E94C005FC
:101B600061E083E10E94C0058091B9008E7F80937F
:101B7000B9008091B9008D7F8093B90088E480938B
:101B8000B80085E48093BC00109254038091580300
:101B9000823018F098E09093540390915903992360
:101BA00039F0813029F48091540384608093540388
:101BB00062E370E080E090E00E943F0760915A038A
:101BC0008FE493E00E943B0268EE73E080E090E0D7
:101BD0000E943F0760E38FE493E00E945C080BE4FF
:101BE00016E4C8010197F1F760E38FE493E00E94E7
:101BF0005C08C8010197F1F760E38FE493E00E946D
:101C00005C0883E592E00197F1F760E28FE493E0EE
:101C10000E945C0860915403606240E08FE493E0AE
:101C20000E94750884E08093550340E06CE08FE4E7
:101C300093E00E9475080E94CC0382E080935603D3
:101C400040E066E08FE493E00E94750840E062E0C7
:101C50008FE493E00E9475088BE39FE10197F1F711
:101C600061E087E00E94030761E088E00E940307CB
:101C700061E086E00E94030788E080935A0360E0F9
:101C80008FE493E00E943B0260E083E00E949C03AB
:101C900088E691E00E94970361E082E00E949C0345
:101CA00087E791E00E94970362E080E00E949C0336
:101CB00088E891E00E94970363E085E00E949C031E
:101CC0008DE991E00E94970327E8822E22E0922E70
:101CD000CE0101965C0133E2632E712C85E393E023
:101CE0000E94EC08882309F414C185E393E00E9464
:101CF0002E08882309F40DC18091370398E3E92E5B
:101D000093E0F92EE7E8F2E0D7019E2F9819981793
:101D100018F49D919193F9CF6AEB71E0CE01409652
:101D20000E949301312C04E611E06701F7018081E4
:101D30001B861A861D861C861F861E8640E1B501FD
:101D400090E00E94FA0FF50101900020E9F7319729
:101D50002F014A185B08B201CE010A960E94C30700
:101D6000811105C0CE010A960E94180807C05F863F
:101D70004E86B5018A859B850E949012FFEFEF1A6F
:101D8000FF0AF6018081803118F06AEB71E002C031
:101D900066E671E0C5010E9493014E855F856A8504
:101DA0007B85C5010E94EA07811103C0C5010E941D
:101DB0001808F80101900020E9F73197AF01401BA6
:101DC000510BB801C5010E94EA07882309F4A7C096
:101DD0004D815E8169817A81CE0140960E94EA0739
:101DE00089819A810E9418118A859B850E94181109
:101DF0003394F4E03F1631F093E0391294CF0AEBBC
:101E000011E093CF0889198901151105E1F480E5E6
:101E100089831A829E012D5F3F4F42E0B50185E321
:101E200093E00E94510981111BC0C12CE12CF12CBF
:101E300000E010E020E030E044E0B50185E393E00D
:101E40000E942C060DC0F8018081882301F3082E22
:101E5000000C990B0E947F12F80181938F01F3CF40
:101E60008CE091E00E947E038823B9F080913702D4
:101E700081110AC088EA91E00E9456040E94C80BB2
:101E800081E08093370241C08CEA91E00E945604C1
:101E90000E94C80B1092370238C088E091E00E947F
:101EA0007E038823B9F08091360281110AC080EB4D
:101EB00091E00E9456040E94680B81E080933602F4
:101EC00024C084EB91E00E9456040E94680B10929B
:101ED00036021BC084E091E00E947E03882379F0E3
:101EE00080913A02811106C00E944E0B81E08093DE
:101EF0003A020BC00E94340B10923A0206C080E0F6
:101F000091E00E947E038111EBCF888999890E941C
:101F10001811C3010197F1F70E948901DFCEC501B5
:101F20000E94180855CFEBE8F2E01382128288EE87
:101F300093E0A0E0B0E084839583A683B78322E298
:101F400031E031832083E7E9F2E013821282848357
:101F50009583A683B78384E391E09183808385ECA6
:101F600090E09587848784EC90E09787868780EC63
:101F700090E0918B808B81EC90E0938B828B82EC54
:101F800090E0958B848B86EC90E0978B868B118EFE
:101F9000128E138E148EEFE4F3E01382128286E425
:101FA00091E0918380838FE3848384E1808784E060
:101FB0008187128688E083876AEB71E089E493E089
:101FC0000E949301E5E3F3E08EE591E09183808345
:101FD0008AE0868789E0878784E393E0918B808B12
:101FE00083E5828B138A08958091490390914A0377
:101FF0000C941811BB27FB015527AA27880F991F9E
:10200000AA1FA41710F0A41B83955051B9F7A05D27
:10201000AA3308F0A95DA193009779F7B111B193A4
:102020001192CB010C941410DC01FC01672F71910B
:102030007723E1F7329704C07C916D9370836291AE
:10204000AE17BF07C8F308952F923F924F925F9249
:102050006F927F928F929F92AF92BF92CF92DF92B8
:10206000EF92FF920F931F93CF93DF93CDB7DEB71D
:10207000CA1BDB0B0FB6F894DEBF0FBECDBF0994B1
:102080002A88398848885F846E847D848C849B8408
:10209000AA84B984C884DF80EE80FD800C811B8116
:1020A000AA81B981CE0FD11D0FB6F894DEBF0FBE45
:1020B000CDBFED010895A1E21A2EAA1BBB1BFD01A5
:1020C0000DC0AA1FBB1FEE1FFF1FA217B307E40717
:1020D000F50720F0A21BB30BE40BF50B661F771F6F
:1020E000881F991F1A9469F760957095809590954F
:1020F0009B01AC01BD01CF010895EE0FFF1F0590BC
:10210000F491E02D0994CF93DF938230910510F480
:1021100082E090E0E091B003F091B10320E030E084
:10212000C0E0D0E0309711F1408151814817590744
:10213000C0F04817590761F482819381209719F004
:102140009B838A832BC09093B1038093B00326C0F6
:102150002115310519F04217530718F49A01BE01F1
:10216000DF01EF010280F381E02DDCCF2115310585
:1021700009F1281B390B2430310590F412968D910A
:102180009C9113976115710521F0FB019383828364
:1021900004C09093B1038093B003FD01329644C014
:1021A000FD01E20FF31F81939193225031092D938A
:1021B0003C933AC02091AE033091AF03232B41F4FE
:1021C00020911201309113013093AF032093AE039D
:1021D00020911001309111012115310541F42DB7E5
:1021E0003EB74091140150911501241B350BE0912D
:1021F000AE03F091AF03E217F307A0F42E1B3F0BE1
:102200002817390778F0AC014E5F5F4F2417350768
:1022100048F04E0F5F1F5093AF034093AE0381937E
:10222000919302C0E0E0F0E0CF01DF91CF910895FB
:102230000F931F93CF93DF93009709F48CC0FC0199
:102240003297138212820091B0031091B1030115ED
:10225000110581F420813181820F931F2091AE03FB
:102260003091AF032817390779F5F093AF03E09366
:10227000AE0371C0D80140E050E0AE17BF0750F484
:1022800012962D913C911397AD012115310509F15D
:10229000D901F3CF9D01DA013383228360817181FB
:1022A000860F971F8217930769F4EC012881398103
:1022B000260F371F2E5F3F4F318320838A819B81FA
:1022C00093838283452B29F4F093B103E093B00309
:1022D00042C01396FC93EE931297ED0149915991E8
:1022E0009E01240F351FE217F30771F4808191815D
:1022F000840F951F029611969C938E9382819381F1
:1023000013969C938E931297E0E0F0E0D80112961A
:102310008D919C911397009719F0F8018C01F6CFDD
:102320008D919C9198012E5F3F4F820F931F2091BA
:10233000AE033091AF032817390769F4309729F4B9
:102340001092B1031092B00302C013821282109354
:10235000AF030093AE03DF91CF911F910F910895CA
:10236000A0E0B0E0E6EBF1E10C942810EC0100975E
:1023700021F4CB010E948310B8C0FC01E60FF71FC7
:102380009C0122503109E217F30708F4ACC0D901CF
:102390000D911C91119706171707B0F00530110524
:1023A00008F49FC0C80104978617970708F499C0DE
:1023B00002501109061B170B019311936D937C9327
:1023C000CF010E9418118DC05B01A01AB10A4C0107
:1023D000800E911EA091B003B091B10340E050E097
:1023E000E12CF12C109709F44AC0A815B905D1F5D4
:1023F0006D907C901197630182E0C80ED11CCA14C5
:10240000DB0480F1A3014A195B096A0182E0C80E6E
:10241000D11C1296BC9012971396AC91B5E0CB16D6
:10242000D10440F0B282A38351834083D9016D93DC
:102430007C930AC00E5F1F4FC301800F911FF901EB
:1024400091838083EB2DFA2FE114F10431F0D70151
:102450001396FC93EE93129744C0F093B103E0936C
:10246000B0033FC08D919C9111974817590708F40C
:10247000AC017D0112960D90BC91A02DB3CF80913F
:10248000AE039091AF0388159905E1F446175707FD
:10249000C8F48091100190911101009741F48DB71B
:1024A0009EB74091140150911501841B950BE817BC
:1024B000F907C8F4F093AF03E093AE03F901718319
:1024C00060830FC0CB010E9483107C01009759F0FC
:1024D000A801BE010E948712CE010E941811C701F7
:1024E00004C0CE0102C080E090E0CDB7DEB7EEE0E0
:1024F0000C94441081E090E0F8940C9497129111A0
:10250000089581568A5108F4805285580895FB0138
:10251000DC0102C001900D9241505040D8F708955F
:10252000FB01DC0101900D920020E1F7089510E01D
:10253000C2E6D0E004C0FE010E947D102196C336A1
:08254000D107C9F7F894FFCFA1
:10254800D3588063DB7A3DD9185EA889F1A73B5B35
:102558000000B20380000000400014005400000096
:1025680000002803F8022B08D202F002E102D3028D
:102578000000000020018D00B8006701E900C700D5
:10258800DB000000000096088D002B082A080000D8
:1025980000007C038D002B082A08000000009D091C
:1025A800EC082E083A0030005452554F4E4720444C
:1025B800414920484F43005355205048414D204B36
:1025C800592054485541540048652054686F6E6737
:1025D8002043686F20546875652058650054686FFB
:1025E8006E67204D696E680058314D0058315400AF
:1025F80058324D00583254000D0A0041646D696E1E
:10260800004C6F636B00556E6C6F636B00586163B1
:10261800206E68616E206C617920786520736F2068
:10262800320047696F206C61793A20005861632055
:102638006E68616E2074726120786520736F203235
:102648000047696F207472613A2000586163206EF8
:1026580068616E206C617920786520736F20310085
:10266800586163206E68616E2074726120786520FD
:06267800736F2031000029
:00000001FF
